:100000000C9443000C9455000C9455000C9455002E
:100010000C9455000C9455000C9455000C9455000C
:100020000C9455000C9455000C9455000C945500FC
:100030000C9455000C9455000C9455000C945500EC
:100040000C9455000C9455000C9455000C945500DC
:100050000C9455000C9455000C9455000C945500CC
:100060000C9455000C945500A100BF00A300A500FE
:10007000A700A900AB00AD00AF00B100B300B50010
:10008000B700B900BB0011241FBECFEFD8E0DEBF20
:10009000CDBF21E0A0E0B1E001C01D92A230B207C7
:1000A000E1F70E945B010C947C010C9400008AB182
:1000B0008C6F8AB987B1836087B984B18C7F84B92A
:1000C00085B1836085B984B18C6384B987B18C6351
:1000D00087B98AB181608AB988B1806388B9089587
:1000E00086E680937C0087E880937A0010927B00FC
:1000F0000895EAE7F0E080818064808380917A004F
:1001000086FDFCCF8091790008959BB1282F30E0C7
:10011000220F331F220F331F9370292B2BB998B155
:100120009C7F8295869586958370892B88B90895E2
:1001300090E08F30910508F5FC01EC5CFF4F0C94CA
:1001400076018FE308958BE508958FE4089586E6A0
:1001500008958DE608958DE7089587E008958FE767
:1001600008958FE6089587E708958CE7089589E359
:1001700008958EE5089589E7089581E7089586E05A
:10018000089545B1982F9F70292F30E0220F331F1B
:10019000220F331F942F9370292B25B948B1982F24
:1001A00092959F709370292F30E0220F331F220FFA
:1001B000331F942F937F292B28B986FF04C08BB15E
:1001C00081608BB908958BB18E7F8BB90895CF93E1
:1001D000C82FCF7098B1906398B982958F700E94A4
:1001E00098000E94C10088B18F7E88B98FE39FE19B
:1001F0000197F1F700C0000088B1806388B98C2FA7
:100200000E9498000E94C10088B18F7D88B98FE359
:100210009FE10197F1F700C0000088B1806388B9C1
:10022000CF910895189922C02FEF89EF90E02150C7
:1002300080409040E1F700C00000189917C08091FD
:1002400001018F5F809301010E94850004C08091AD
:1002500000010E94E700189BFACF2FEF89EF90E092
:10026000215080409040E1F700C00000199922C061
:100270002FEF89EF90E0215080409040E1F700C0DF
:100280000000199917C080910101815080930101EC
:100290000E94850004C0809100010E94E700199B24
:1002A000FACF2FEF89EF90E0215080409040E1F7A6
:1002B00000C0000008950E9457000E9470008091C5
:1002C00001010E9485000E947900809300018091C5
:1002D00000010E94E7000E941201809101010E942A
:1002E00085000E94790080930001F1CFEE0FFF1F7F
:0C02F0000590F491E02D0994F894FFCFE4
:00000001FF
