:100000000C9443000C9455000C9455000C9455002E
:100010000C9455000C9455000C9455000C9455000C
:100020000C9455000C9455000C9455000C945500FC
:100030000C9455000C9455000C9455000C945500EC
:100040000C9455000C9455000C9455000C945500DC
:100050000C9455000C9455000C9455000C945500CC
:100060000C9455000C945500B100CF00B300B500BE
:10007000B700B900BB00BD00BF00C100C300C50090
:10008000C700C900CB0011241FBECFEFD8E0DEBFF0
:10009000CDBF21E0A0E0B1E001C01D92A230B207C7
:1000A000E1F70E9489010C94AE010C9400008AB122
:1000B0008C6F8AB987B1836087B984B18C7F84B92A
:1000C00085B1836085B984B18C6384B987B18C6351
:1000D00087B98AB181608AB98AB182608AB98BB1E5
:1000E0008D7F8BB988B18F7C88B9089586E680931F
:1000F0007C0087E880937A0010927B000895EAE7FD
:10010000F0E080818064808380917A0086FDFCCF5E
:100110008091790008959BB1282F30E0220F331F82
:10012000220F331F9370292B2BB998B19C7F829596
:10013000869586958370892B88B90895681720F471
:100140008BB182608BB908958BB18D7F8BB9089587
:1001500090E08F30910508F5FC01EC5CFF4F0C94AA
:10016000A8018FE308958BE508958FE4089586E64E
:1001700008958DE608958DE7089587E008958FE747
:1001800008958FE6089587E708958CE7089589E339
:1001900008958EE5089589E7089581E7089586E03A
:1001A00008958095982F9F7745B1382F3F70232F62
:1001B00030E0220F331F220F331F342F3370232BD5
:1001C00025B948B192959F709370292F30E0220F86
:1001D000331F220F331F942F937F292B28B986FFBB
:1001E00004C08BB181608BB908958BB18E7F8BB9C0
:1001F0000895CF93C82FCF7098B19F7C98B98295FE
:100200008F700E94A8000E94D10088B1806188B9D7
:100210008FE39FE10197F1F700C0000088B18F7C68
:1002200088B98C2F0E94A8000E94D10088B18062FA
:1002300088B98FE39FE10197F1F700C0000088B112
:100240008F7C88B9CF910895189930C02FE788E343
:1002500091E0215080409040E1F700C000001899E3
:1002600025C0809101018F5F809301010E948B0066
:1002700060910101809100010E949E000CC00E94CB
:100280007F0080930001609101010E949E00809197
:1002900000010E94F900189BF2CF2FE788E391E05C
:1002A000215080409040E1F700C00000199930C013
:1002B0002FE788E391E0215080409040E1F700C0B3
:1002C0000000199925C0809101018150809301019E
:1002D0000E948B0060910101809100010E949E00AC
:1002E0000CC00E947F0080930001609101010E9478
:1002F0009E00809100010E94F900199BF2CF2FE728
:1003000088E391E0215080409040E1F700C0000078
:1003100008950E9457000E947600809101010E947A
:100320008B000E947F00809300010E942401809135
:1003300001010E948B000E947F0080930001609168
:1003400001010E949E00809100010E94F900EDCF02
:10035000EE0FFF1F0590F491E02D0994F894FFCF64
:00000001FF
