S00F00005072654C6162342E73726563AB
S11300000C9434000C943E000C943E000C943E007E
S11300100C943E000C943E000C943E000C943E0064
S11300200C943E000C943E000C943E000C943E0054
S11300300C943E000C943E000C943E000C943E0044
S11300400C943E000C943E000C943E000C943E0034
S11300500C943E000C943E000C943E000C943E0024
S11300600C943E000C943E0011241FBECFEFD8E048
S1130070DEBFCDBF0E948A000C94AE000C94000039
S11300809BB1282F30E0220F331F220F331F9370B0
S1130090292B2BB998B19C7F829586958695837080
S11300A0892B88B9089523B1482F30E0082E02C067
S11300B0359527950A94E2F720FD28C02FE738E309
S11300C061E0215030406040E1F700C0000023B1FE
S11300D030E0B90102C0759567958A95E2F760FD35
S11300E017C083B190E0042E02C0959587950A94B9
S11300F0E2F780FFF6CF7FE788E391E0715080401C
S11301009040E1F700C0000081E0089580E0089588
S113011080E008958AB18C6F8AB987B1836087B90A
S113012084B18C7F84B985B1836085B980E00E94F5
S11301304000C0E080E00E945300882329F0CF5F94
S11301408C2F0E944000F6CF81E00E945300882348
S113015089F3C1508C2F0E944000ECCFF894FFCF5C
S9030000FC
